{
    "abi": [
        {
            "type": "constructor",
            "inputs": [
                {
                    "name": "_owner",
                    "type": "address",
                    "internalType": "address"
                }
            ],
            "stateMutability": "payable"
        },
        {
            "type": "fallback",
            "stateMutability": "payable"
        },
        {
            "type": "receive",
            "stateMutability": "payable"
        },
        {
            "type": "function",
            "name": "COOLDOWN",
            "inputs": [],
            "outputs": [
                {
                    "name": "",
                    "type": "uint256",
                    "internalType": "uint256"
                }
            ],
            "stateMutability": "view"
        },
        {
            "type": "function",
            "name": "getAllTrackedAddressesWithBalances",
            "inputs": [],
            "outputs": [
                {
                    "name": "addresses",
                    "type": "address[]",
                    "internalType": "address[]"
                },
                {
                    "name": "balances",
                    "type": "uint256[]",
                    "internalType": "uint256[]"
                }
            ],
            "stateMutability": "view"
        },
        {
            "type": "function",
            "name": "getContractBalance",
            "inputs": [],
            "outputs": [
                {
                    "name": "",
                    "type": "uint256",
                    "internalType": "uint256"
                }
            ],
            "stateMutability": "view"
        },
        {
            "type": "function",
            "name": "getTrackedAddressesCount",
            "inputs": [],
            "outputs": [
                {
                    "name": "",
                    "type": "uint256",
                    "internalType": "uint256"
                }
            ],
            "stateMutability": "view"
        },
        {
            "type": "function",
            "name": "lastMaintenance",
            "inputs": [],
            "outputs": [
                {
                    "name": "",
                    "type": "uint256",
                    "internalType": "uint256"
                }
            ],
            "stateMutability": "view"
        },
        {
            "type": "function",
            "name": "maintainBalances",
            "inputs": [],
            "outputs": [],
            "stateMutability": "nonpayable"
        },
        {
            "type": "function",
            "name": "minimumBalances",
            "inputs": [
                {
                    "name": "",
                    "type": "address",
                    "internalType": "address"
                }
            ],
            "outputs": [
                {
                    "name": "",
                    "type": "uint256",
                    "internalType": "uint256"
                }
            ],
            "stateMutability": "view"
        },
        {
            "type": "function",
            "name": "owner",
            "inputs": [],
            "outputs": [
                {
                    "name": "",
                    "type": "address",
                    "internalType": "address"
                }
            ],
            "stateMutability": "view"
        },
        {
            "type": "function",
            "name": "setMultipleAddressesWithBalance",
            "inputs": [
                {
                    "name": "_targets",
                    "type": "address[]",
                    "internalType": "address[]"
                },
                {
                    "name": "_minimumBalances",
                    "type": "uint256[]",
                    "internalType": "uint256[]"
                }
            ],
            "outputs": [],
            "stateMutability": "nonpayable"
        },
        {
            "type": "function",
            "name": "trackedAddresses",
            "inputs": [
                {
                    "name": "",
                    "type": "uint256",
                    "internalType": "uint256"
                }
            ],
            "outputs": [
                {
                    "name": "",
                    "type": "address",
                    "internalType": "address"
                }
            ],
            "stateMutability": "view"
        },
        {
            "type": "event",
            "name": "BalanceToppedUp",
            "inputs": [
                {
                    "name": "recipient",
                    "type": "address",
                    "indexed": true,
                    "internalType": "address"
                },
                {
                    "name": "amount",
                    "type": "uint256",
                    "indexed": false,
                    "internalType": "uint256"
                }
            ],
            "anonymous": false
        },
        {
            "type": "event",
            "name": "MinimumBalanceSet",
            "inputs": [
                {
                    "name": "target",
                    "type": "address",
                    "indexed": true,
                    "internalType": "address"
                },
                {
                    "name": "amount",
                    "type": "uint256",
                    "indexed": false,
                    "internalType": "uint256"
                }
            ],
            "anonymous": false
        }
    ],
    "bytecode": {
        "object": "0x608060405260405162001582380380620015828339818101604052810190620000299190620000d4565b805f806101000a81548173ffffffffffffffffffffffffffffffffffffffff021916908373ffffffffffffffffffffffffffffffffffffffff1602179055505062000104565b5f80fd5b5f73ffffffffffffffffffffffffffffffffffffffff82169050919050565b5f6200009e8262000073565b9050919050565b620000b08162000092565b8114620000bb575f80fd5b50565b5f81519050620000ce81620000a5565b92915050565b5f60208284031215620000ec57620000eb6200006f565b5b5f620000fb84828501620000be565b91505092915050565b61147080620001125f395ff3fe608060405260043610610094575f3560e01c80638da5cb5b116100585780638da5cb5b1461016e578063a2724a4d14610198578063d852b6fe146101c2578063f7de2b3d146101ec578063fc6da4be146102285761009b565b80631d3f99df1461009d57806334e7f7c3146100b35780636b0fe4be146100ef5780636f9fb98a146101195780637b6eeb2e146101435761009b565b3661009b57005b005b3480156100a8575f80fd5b506100b1610250565b005b3480156100be575f80fd5b506100d960048036038101906100d49190610c07565b6104ce565b6040516100e69190610c4a565b60405180910390f35b3480156100fa575f80fd5b506101036104e3565b6040516101109190610c4a565b60405180910390f35b348015610124575f80fd5b5061012d6104ef565b60405161013a9190610c4a565b60405180910390f35b34801561014e575f80fd5b506101576104f6565b604051610165929190610dd1565b60405180910390f35b348015610179575f80fd5b506101826106dc565b60405161018f9190610e15565b60405180910390f35b3480156101a3575f80fd5b506101ac6106ff565b6040516101b99190610c4a565b60405180910390f35b3480156101cd575f80fd5b506101d6610705565b6040516101e39190610c4a565b60405180910390f35b3480156101f7575f80fd5b50610212600480360381019061020d9190610e58565b61070b565b60405161021f9190610e15565b60405180910390f35b348015610233575f80fd5b5061024e60048036038101906102499190610f39565b610746565b005b610e106004546102609190610fe4565b4210156102a2576040517f08c379a000000000000000000000000000000000000000000000000000000000815260040161029990611071565b60405180910390fd5b426004819055505f5b6002805490508110156104cb575f600282815481106102cd576102cc61108f565b5b905f5260205f20015f9054906101000a900473ffffffffffffffffffffffffffffffffffffffff1690505f60015f8373ffffffffffffffffffffffffffffffffffffffff1673ffffffffffffffffffffffffffffffffffffffff1681526020019081526020015f205490505f81036103465750506104b8565b5f8273ffffffffffffffffffffffffffffffffffffffff16319050818110156104b4575f818361037691906110bc565b9050804710156103bb576040517f08c379a00000000000000000000000000000000000000000000000000000000081526004016103b290611139565b60405180910390fd5b5f8473ffffffffffffffffffffffffffffffffffffffff16826040516103e090611184565b5f6040518083038185875af1925050503d805f811461041a576040519150601f19603f3d011682016040523d82523d5f602084013e61041f565b606091505b5050905080610463576040517f08c379a000000000000000000000000000000000000000000000000000000000815260040161045a906111e2565b60405180910390fd5b8473ffffffffffffffffffffffffffffffffffffffff167f068084e4fd39d69bcbf609dffcee86bf3143fb2c521113085f333cd9704ccc4e836040516104a99190610c4a565b60405180910390a250505b5050505b80806104c390611200565b9150506102ab565b50565b6001602052805f5260405f205f915090505481565b5f600280549050905090565b5f47905090565b6060805f60028054905090508067ffffffffffffffff81111561051c5761051b611247565b5b60405190808252806020026020018201604052801561054a5781602001602082028036833780820191505090505b5092508067ffffffffffffffff81111561056757610566611247565b5b6040519080825280602002602001820160405280156105955781602001602082028036833780820191505090505b5091505f5b818110156106d657600281815481106105b6576105b561108f565b5b905f5260205f20015f9054906101000a900473ffffffffffffffffffffffffffffffffffffffff168482815181106105f1576105f061108f565b5b602002602001019073ffffffffffffffffffffffffffffffffffffffff16908173ffffffffffffffffffffffffffffffffffffffff168152505060015f600283815481106106425761064161108f565b5b905f5260205f20015f9054906101000a900473ffffffffffffffffffffffffffffffffffffffff1673ffffffffffffffffffffffffffffffffffffffff1673ffffffffffffffffffffffffffffffffffffffff1681526020019081526020015f20548382815181106106b7576106b661108f565b5b60200260200101818152505080806106ce90611200565b91505061059a565b50509091565b5f8054906101000a900473ffffffffffffffffffffffffffffffffffffffff1681565b610e1081565b60045481565b6002818154811061071a575f80fd5b905f5260205f20015f915054906101000a900473ffffffffffffffffffffffffffffffffffffffff1681565b5f8054906101000a900473ffffffffffffffffffffffffffffffffffffffff1673ffffffffffffffffffffffffffffffffffffffff163373ffffffffffffffffffffffffffffffffffffffff16146107d3576040517f08c379a00000000000000000000000000000000000000000000000000000000081526004016107ca906112e4565b60405180910390fd5b81819050848490501461081b576040517f08c379a00000000000000000000000000000000000000000000000000000000081526004016108129061134c565b60405180910390fd5b5f8484905011610860576040517f08c379a0000000000000000000000000000000000000000000000000000000008152600401610857906113b4565b60405180910390fd5b5f5b84849050811015610b9e575f73ffffffffffffffffffffffffffffffffffffffff168585838181106108975761089661108f565b5b90506020020160208101906108ac9190610c07565b73ffffffffffffffffffffffffffffffffffffffff1603610902576040517f08c379a00000000000000000000000000000000000000000000000000000000081526004016108f99061141c565b60405180910390fd5b60035f8686848181106109185761091761108f565b5b905060200201602081019061092d9190610c07565b73ffffffffffffffffffffffffffffffffffffffff1673ffffffffffffffffffffffffffffffffffffffff1681526020019081526020015f205f9054906101000a900460ff16610a7b57600285858381811061098c5761098b61108f565b5b90506020020160208101906109a19190610c07565b908060018154018082558091505060019003905f5260205f20015f9091909190916101000a81548173ffffffffffffffffffffffffffffffffffffffff021916908373ffffffffffffffffffffffffffffffffffffffff160217905550600160035f878785818110610a1657610a1561108f565b5b9050602002016020810190610a2b9190610c07565b73ffffffffffffffffffffffffffffffffffffffff1673ffffffffffffffffffffffffffffffffffffffff1681526020019081526020015f205f6101000a81548160ff0219169083151502179055505b828282818110610a8e57610a8d61108f565b5b9050602002013560015f878785818110610aab57610aaa61108f565b5b9050602002016020810190610ac09190610c07565b73ffffffffffffffffffffffffffffffffffffffff1673ffffffffffffffffffffffffffffffffffffffff1681526020019081526020015f2081905550848482818110610b1057610b0f61108f565b5b9050602002016020810190610b259190610c07565b73ffffffffffffffffffffffffffffffffffffffff167fc3b4266639528bbf9205b7bd79ef016aabdc292020a30fa14bb1538e76cd776e848484818110610b6f57610b6e61108f565b5b90506020020135604051610b839190610c4a565b60405180910390a28080610b9690611200565b915050610862565b5050505050565b5f80fd5b5f80fd5b5f73ffffffffffffffffffffffffffffffffffffffff82169050919050565b5f610bd682610bad565b9050919050565b610be681610bcc565b8114610bf0575f80fd5b50565b5f81359050610c0181610bdd565b92915050565b5f60208284031215610c1c57610c1b610ba5565b5b5f610c2984828501610bf3565b91505092915050565b5f819050919050565b610c4481610c32565b82525050565b5f602082019050610c5d5f830184610c3b565b92915050565b5f81519050919050565b5f82825260208201905092915050565b5f819050602082019050919050565b610c9581610bcc565b82525050565b5f610ca68383610c8c565b60208301905092915050565b5f602082019050919050565b5f610cc882610c63565b610cd28185610c6d565b9350610cdd83610c7d565b805f5b83811015610d0d578151610cf48882610c9b565b9750610cff83610cb2565b925050600181019050610ce0565b5085935050505092915050565b5f81519050919050565b5f82825260208201905092915050565b5f819050602082019050919050565b610d4c81610c32565b82525050565b5f610d5d8383610d43565b60208301905092915050565b5f602082019050919050565b5f610d7f82610d1a565b610d898185610d24565b9350610d9483610d34565b805f5b83811015610dc4578151610dab8882610d52565b9750610db683610d69565b925050600181019050610d97565b5085935050505092915050565b5f6040820190508181035f830152610de98185610cbe565b90508181036020830152610dfd8184610d75565b90509392505050565b610e0f81610bcc565b82525050565b5f602082019050610e285f830184610e06565b92915050565b610e3781610c32565b8114610e41575f80fd5b50565b5f81359050610e5281610e2e565b92915050565b5f60208284031215610e6d57610e6c610ba5565b5b5f610e7a84828501610e44565b91505092915050565b5f80fd5b5f80fd5b5f80fd5b5f8083601f840112610ea457610ea3610e83565b5b8235905067ffffffffffffffff811115610ec157610ec0610e87565b5b602083019150836020820283011115610edd57610edc610e8b565b5b9250929050565b5f8083601f840112610ef957610ef8610e83565b5b8235905067ffffffffffffffff811115610f1657610f15610e87565b5b602083019150836020820283011115610f3257610f31610e8b565b5b9250929050565b5f805f8060408587031215610f5157610f50610ba5565b5b5f85013567ffffffffffffffff811115610f6e57610f6d610ba9565b5b610f7a87828801610e8f565b9450945050602085013567ffffffffffffffff811115610f9d57610f9c610ba9565b5b610fa987828801610ee4565b925092505092959194509250565b7f4e487b71000000000000000000000000000000000000000000000000000000005f52601160045260245ffd5b5f610fee82610c32565b9150610ff983610c32565b925082820190508082111561101157611010610fb7565b5b92915050565b5f82825260208201905092915050565b7f436f6f6c646f776e20706572696f6420616374697665000000000000000000005f82015250565b5f61105b601683611017565b915061106682611027565b602082019050919050565b5f6020820190508181035f8301526110888161104f565b9050919050565b7f4e487b71000000000000000000000000000000000000000000000000000000005f52603260045260245ffd5b5f6110c682610c32565b91506110d183610c32565b92508282039050818111156110e9576110e8610fb7565b5b92915050565b7f496e73756666696369656e7420636f6e74726163742062616c616e63650000005f82015250565b5f611123601d83611017565b915061112e826110ef565b602082019050919050565b5f6020820190508181035f83015261115081611117565b9050919050565b5f81905092915050565b50565b5f61116f5f83611157565b915061117a82611161565b5f82019050919050565b5f61118e82611164565b9150819050919050565b7f5472616e73666572206661696c656400000000000000000000000000000000005f82015250565b5f6111cc600f83611017565b91506111d782611198565b602082019050919050565b5f6020820190508181035f8301526111f9816111c0565b9050919050565b5f61120a82610c32565b91507fffffffffffffffffffffffffffffffffffffffffffffffffffffffffffffffff820361123c5761123b610fb7565b5b600182019050919050565b7f4e487b71000000000000000000000000000000000000000000000000000000005f52604160045260245ffd5b7f4f6e6c79206f776e65722063616e2063616c6c20746869732066756e6374696f5f8201527f6e00000000000000000000000000000000000000000000000000000000000000602082015250565b5f6112ce602183611017565b91506112d982611274565b604082019050919050565b5f6020820190508181035f8301526112fb816112c2565b9050919050565b7f417272617973206c656e677468206d69736d61746368000000000000000000005f82015250565b5f611336601683611017565b915061134182611302565b602082019050919050565b5f6020820190508181035f8301526113638161132a565b9050919050565b7f456d70747920617272617973206e6f7420616c6c6f77656400000000000000005f82015250565b5f61139e601883611017565b91506113a98261136a565b602082019050919050565b5f6020820190508181035f8301526113cb81611392565b9050919050565b7f496e76616c6964206164647265737300000000000000000000000000000000005f82015250565b5f611406600f83611017565b9150611411826113d2565b602082019050919050565b5f6020820190508181035f830152611433816113fa565b905091905056fea264697066735822122052ebe2fe3b288c6c3ffe88bb899c23d64b022b617bc1a8d19fd2649d096bf68064736f6c63430008140033",
        "linkReferences": {}
    },
    "methodIdentifiers": {
        "COOLDOWN()": "a2724a4d",
        "getAllTrackedAddressesWithBalances()": "7b6eeb2e",
        "getContractBalance()": "6f9fb98a",
        "getTrackedAddressesCount()": "6b0fe4be",
        "lastMaintenance()": "d852b6fe",
        "maintainBalances()": "1d3f99df",
        "minimumBalances(address)": "34e7f7c3",
        "owner()": "8da5cb5b",
        "setMultipleAddressesWithBalance(address[],uint256[])": "fc6da4be",
        "trackedAddresses(uint256)": "f7de2b3d"
    },
    "id": 15
}