{"abi":[{"type":"function","name":"createProxy","inputs":[{"name":"implementation","type":"address","internalType":"address"}],"outputs":[{"name":"proxy","type":"address","internalType":"address"}],"stateMutability":"payable"},{"type":"function","name":"getUserContract","inputs":[{"name":"user","type":"address","internalType":"address"}],"outputs":[{"name":"","type":"address","internalType":"address"}],"stateMutability":"view"},{"type":"function","name":"userContracts","inputs":[{"name":"","type":"address","internalType":"address"}],"outputs":[{"name":"","type":"address","internalType":"address"}],"stateMutability":"view"},{"type":"event","name":"ProxyDeployed","inputs":[{"name":"owner","type":"address","indexed":true,"internalType":"address"},{"name":"Proxy","type":"address","indexed":true,"internalType":"address"}],"anonymous":false}],"bytecode":{"object":"0x6080604052348015600e575f5ffd5b506107628061001c5f395ff3fe608060405260043610610033575f3560e01c80630687b785146100375780636140c54c146100735780637e6c75f2146100a3575b5f5ffd5b348015610042575f5ffd5b5061005d6004803603810190610058919061047e565b6100df565b60405161006a91906104b8565b60405180910390f35b61008d6004803603810190610088919061047e565b61010e565b60405161009a91906104b8565b60405180910390f35b3480156100ae575f5ffd5b506100c960048036038101906100c4919061047e565b6103bc565b6040516100d691906104b8565b60405180910390f35b5f602052805f5260405f205f915054906101000a900473ffffffffffffffffffffffffffffffffffffffff1681565b5f5f8260405160200161012191906105b4565b60405160208183030381529060405290508051602082015ff091505f73ffffffffffffffffffffffffffffffffffffffff168273ffffffffffffffffffffffffffffffffffffffff16036101aa576040517f08c379a00000000000000000000000000000000000000000000000000000000081526004016101a19061063e565b60405180910390fd5b5f8273ffffffffffffffffffffffffffffffffffffffff1634336040516024016101d491906104b8565b6040516020818303038152906040527ff8a6c595000000000000000000000000000000000000000000000000000000007bffffffffffffffffffffffffffffffffffffffffffffffffffffffff19166020820180517bffffffffffffffffffffffffffffffffffffffffffffffffffffffff838183161783525050505060405161025e91906106ae565b5f6040518083038185875af1925050503d805f8114610298576040519150601f19603f3d011682016040523d82523d5f602084013e61029d565b606091505b50509050806102e1576040517f08c379a00000000000000000000000000000000000000000000000000000000081526004016102d89061070e565b60405180910390fd5b825f5f3373ffffffffffffffffffffffffffffffffffffffff1673ffffffffffffffffffffffffffffffffffffffff1681526020019081526020015f205f6101000a81548173ffffffffffffffffffffffffffffffffffffffff021916908373ffffffffffffffffffffffffffffffffffffffff1602179055508273ffffffffffffffffffffffffffffffffffffffff163373ffffffffffffffffffffffffffffffffffffffff167f3d2489efb661e8b1c3679865db649ca1de61d76a71184a1234de2e55786a6aad60405160405180910390a35050919050565b5f5f5f8373ffffffffffffffffffffffffffffffffffffffff1673ffffffffffffffffffffffffffffffffffffffff1681526020019081526020015f205f9054906101000a900473ffffffffffffffffffffffffffffffffffffffff169050919050565b5f5ffd5b5f73ffffffffffffffffffffffffffffffffffffffff82169050919050565b5f61044d82610424565b9050919050565b61045d81610443565b8114610467575f5ffd5b50565b5f8135905061047881610454565b92915050565b5f6020828403121561049357610492610420565b5b5f6104a08482850161046a565b91505092915050565b6104b281610443565b82525050565b5f6020820190506104cb5f8301846104a9565b92915050565b5f81905092915050565b7f3d602d80600a3d3981f3363d3d373d3d3d363d730000000000000000000000005f82015250565b5f61050f6014836104d1565b915061051a826104db565b601482019050919050565b5f8160601b9050919050565b5f61053b82610525565b9050919050565b5f61054c82610531565b9050919050565b61056461055f82610443565b610542565b82525050565b7f5af43d82803e903d91602b57fd5bf300000000000000000000000000000000005f82015250565b5f61059e600f836104d1565b91506105a98261056a565b600f82019050919050565b5f6105be82610503565b91506105ca8284610553565b6014820191506105d982610592565b915081905092915050565b5f82825260208201905092915050565b7f50726f7879206465706c6f796d656e74206661696c65640000000000000000005f82015250565b5f6106286017836105e4565b9150610633826105f4565b602082019050919050565b5f6020820190508181035f8301526106558161061c565b9050919050565b5f81519050919050565b5f81905092915050565b8281835e5f83830152505050565b5f6106888261065c565b6106928185610666565b93506106a2818560208601610670565b80840191505092915050565b5f6106b9828461067e565b915081905092915050565b7f496e697469616c697a6174696f6e206661696c656400000000000000000000005f82015250565b5f6106f86015836105e4565b9150610703826106c4565b602082019050919050565b5f6020820190508181035f830152610725816106ec565b905091905056fea26469706673582212206e9139ad44383809bc84035e2afd182e5832aaece331c588875ec2b9e45085a164736f6c634300081c0033","linkReferences":{}},"methodIdentifiers":{"createProxy(address)":"6140c54c","getUserContract(address)":"7e6c75f2","userContracts(address)":"0687b785"},"id":1}