{"abi":[{"type":"constructor","inputs":[{"name":"_owner","type":"address","internalType":"address"}],"stateMutability":"payable"},{"type":"fallback","stateMutability":"payable"},{"type":"receive","stateMutability":"payable"},{"type":"function","name":"getAllTrackedAddressesWithBalances","inputs":[],"outputs":[{"name":"addresses","type":"address[]","internalType":"address[]"},{"name":"balances","type":"uint256[]","internalType":"uint256[]"}],"stateMutability":"view"},{"type":"function","name":"getContractBalance","inputs":[],"outputs":[{"name":"","type":"uint256","internalType":"uint256"}],"stateMutability":"view"},{"type":"function","name":"getTrackedAddressesCount","inputs":[],"outputs":[{"name":"","type":"uint256","internalType":"uint256"}],"stateMutability":"view"},{"type":"function","name":"maintainBalances","inputs":[],"outputs":[],"stateMutability":"nonpayable"},{"type":"function","name":"minimumBalances","inputs":[{"name":"","type":"address","internalType":"address"}],"outputs":[{"name":"","type":"uint256","internalType":"uint256"}],"stateMutability":"view"},{"type":"function","name":"owner","inputs":[],"outputs":[{"name":"","type":"address","internalType":"address"}],"stateMutability":"view"},{"type":"function","name":"setMultipleAddressesWithBalance","inputs":[{"name":"_targets","type":"address[]","internalType":"address[]"},{"name":"_minimumBalances","type":"uint256[]","internalType":"uint256[]"}],"outputs":[],"stateMutability":"nonpayable"},{"type":"function","name":"trackedAddresses","inputs":[{"name":"","type":"uint256","internalType":"uint256"}],"outputs":[{"name":"","type":"address","internalType":"address"}],"stateMutability":"view"},{"type":"event","name":"BalanceToppedUp","inputs":[{"name":"recipient","type":"address","indexed":true,"internalType":"address"},{"name":"amount","type":"uint256","indexed":false,"internalType":"uint256"}],"anonymous":false},{"type":"event","name":"MinimumBalanceSet","inputs":[{"name":"target","type":"address","indexed":true,"internalType":"address"},{"name":"amount","type":"uint256","indexed":false,"internalType":"uint256"}],"anonymous":false}],"bytecode":{"object":"0x60806040526040516113b23803806113b2833981810160405281019061002591906100c8565b805f5f6101000a81548173ffffffffffffffffffffffffffffffffffffffff021916908373ffffffffffffffffffffffffffffffffffffffff160217905550506100f3565b5f5ffd5b5f73ffffffffffffffffffffffffffffffffffffffff82169050919050565b5f6100978261006e565b9050919050565b6100a78161008d565b81146100b1575f5ffd5b50565b5f815190506100c28161009e565b92915050565b5f602082840312156100dd576100dc61006a565b5b5f6100ea848285016100b4565b91505092915050565b6112b2806101005f395ff3fe60806040526004361061007e575f3560e01c80637b6eeb2e1161004d5780637b6eeb2e146101275780638da5cb5b14610152578063f7de2b3d1461017c578063fc6da4be146101b85761007f565b80631d3f99df1461008157806334e7f7c3146100975780636b0fe4be146100d35780636f9fb98a146100fd5761007f565b5b005b34801561008c575f5ffd5b506100956101e0565b005b3480156100a2575f5ffd5b506100bd60048036038101906100b89190610b2b565b610402565b6040516100ca9190610b6e565b60405180910390f35b3480156100de575f5ffd5b506100e7610417565b6040516100f49190610b6e565b60405180910390f35b348015610108575f5ffd5b50610111610423565b60405161011e9190610b6e565b60405180910390f35b348015610132575f5ffd5b5061013b61042a565b604051610149929190610cf5565b60405180910390f35b34801561015d575f5ffd5b5061016661060d565b6040516101739190610d39565b60405180910390f35b348015610187575f5ffd5b506101a2600480360381019061019d9190610d7c565b610631565b6040516101af9190610d39565b60405180910390f35b3480156101c3575f5ffd5b506101de60048036038101906101d99190610e5d565b61066c565b005b5f5f90505b6002805490508110156103ff575f6002828154811061020757610206610edb565b5b905f5260205f20015f9054906101000a900473ffffffffffffffffffffffffffffffffffffffff1690505f60015f8373ffffffffffffffffffffffffffffffffffffffff1673ffffffffffffffffffffffffffffffffffffffff1681526020019081526020015f205490505f81036102805750506103f2565b5f8273ffffffffffffffffffffffffffffffffffffffff16319050818110156103ee575f81836102b09190610f35565b9050804710156102f5576040517f08c379a00000000000000000000000000000000000000000000000000000000081526004016102ec90610fc2565b60405180910390fd5b5f8473ffffffffffffffffffffffffffffffffffffffff168260405161031a9061100d565b5f6040518083038185875af1925050503d805f8114610354576040519150601f19603f3d011682016040523d82523d5f602084013e610359565b606091505b505090508061039d576040517f08c379a00000000000000000000000000000000000000000000000000000000081526004016103949061106b565b60405180910390fd5b8473ffffffffffffffffffffffffffffffffffffffff167f068084e4fd39d69bcbf609dffcee86bf3143fb2c521113085f333cd9704ccc4e836040516103e39190610b6e565b60405180910390a250505b5050505b80806001019150506101e5565b50565b6001602052805f5260405f205f915090505481565b5f600280549050905090565b5f47905090565b6060805f60028054905090508067ffffffffffffffff8111156104505761044f611089565b5b60405190808252806020026020018201604052801561047e5781602001602082028036833780820191505090505b5092508067ffffffffffffffff81111561049b5761049a611089565b5b6040519080825280602002602001820160405280156104c95781602001602082028036833780820191505090505b5091505f5f90505b8181101561060757600281815481106104ed576104ec610edb565b5b905f5260205f20015f9054906101000a900473ffffffffffffffffffffffffffffffffffffffff1684828151811061052857610527610edb565b5b602002602001019073ffffffffffffffffffffffffffffffffffffffff16908173ffffffffffffffffffffffffffffffffffffffff168152505060015f6002838154811061057957610578610edb565b5b905f5260205f20015f9054906101000a900473ffffffffffffffffffffffffffffffffffffffff1673ffffffffffffffffffffffffffffffffffffffff1673ffffffffffffffffffffffffffffffffffffffff1681526020019081526020015f20548382815181106105ee576105ed610edb565b5b60200260200101818152505080806001019150506104d1565b50509091565b5f5f9054906101000a900473ffffffffffffffffffffffffffffffffffffffff1681565b60028181548110610640575f80fd5b905f5260205f20015f915054906101000a900473ffffffffffffffffffffffffffffffffffffffff1681565b5f5f9054906101000a900473ffffffffffffffffffffffffffffffffffffffff1673ffffffffffffffffffffffffffffffffffffffff163373ffffffffffffffffffffffffffffffffffffffff16146106fa576040517f08c379a00000000000000000000000000000000000000000000000000000000081526004016106f190611126565b60405180910390fd5b818190508484905014610742576040517f08c379a00000000000000000000000000000000000000000000000000000000081526004016107399061118e565b60405180910390fd5b5f8484905011610787576040517f08c379a000000000000000000000000000000000000000000000000000000000815260040161077e906111f6565b60405180910390fd5b5f5f90505b84849050811015610ac2575f73ffffffffffffffffffffffffffffffffffffffff168585838181106107c1576107c0610edb565b5b90506020020160208101906107d69190610b2b565b73ffffffffffffffffffffffffffffffffffffffff160361082c576040517f08c379a00000000000000000000000000000000000000000000000000000000081526004016108239061125e565b60405180910390fd5b60035f86868481811061084257610841610edb565b5b90506020020160208101906108579190610b2b565b73ffffffffffffffffffffffffffffffffffffffff1673ffffffffffffffffffffffffffffffffffffffff1681526020019081526020015f205f9054906101000a900460ff166109a55760028585838181106108b6576108b5610edb565b5b90506020020160208101906108cb9190610b2b565b908060018154018082558091505060019003905f5260205f20015f9091909190916101000a81548173ffffffffffffffffffffffffffffffffffffffff021916908373ffffffffffffffffffffffffffffffffffffffff160217905550600160035f8787858181106109405761093f610edb565b5b90506020020160208101906109559190610b2b565b73ffffffffffffffffffffffffffffffffffffffff1673ffffffffffffffffffffffffffffffffffffffff1681526020019081526020015f205f6101000a81548160ff0219169083151502179055505b8282828181106109b8576109b7610edb565b5b9050602002013560015f8787858181106109d5576109d4610edb565b5b90506020020160208101906109ea9190610b2b565b73ffffffffffffffffffffffffffffffffffffffff1673ffffffffffffffffffffffffffffffffffffffff1681526020019081526020015f2081905550848482818110610a3a57610a39610edb565b5b9050602002016020810190610a4f9190610b2b565b73ffffffffffffffffffffffffffffffffffffffff167fc3b4266639528bbf9205b7bd79ef016aabdc292020a30fa14bb1538e76cd776e848484818110610a9957610a98610edb565b5b90506020020135604051610aad9190610b6e565b60405180910390a2808060010191505061078c565b5050505050565b5f5ffd5b5f5ffd5b5f73ffffffffffffffffffffffffffffffffffffffff82169050919050565b5f610afa82610ad1565b9050919050565b610b0a81610af0565b8114610b14575f5ffd5b50565b5f81359050610b2581610b01565b92915050565b5f60208284031215610b4057610b3f610ac9565b5b5f610b4d84828501610b17565b91505092915050565b5f819050919050565b610b6881610b56565b82525050565b5f602082019050610b815f830184610b5f565b92915050565b5f81519050919050565b5f82825260208201905092915050565b5f819050602082019050919050565b610bb981610af0565b82525050565b5f610bca8383610bb0565b60208301905092915050565b5f602082019050919050565b5f610bec82610b87565b610bf68185610b91565b9350610c0183610ba1565b805f5b83811015610c31578151610c188882610bbf565b9750610c2383610bd6565b925050600181019050610c04565b5085935050505092915050565b5f81519050919050565b5f82825260208201905092915050565b5f819050602082019050919050565b610c7081610b56565b82525050565b5f610c818383610c67565b60208301905092915050565b5f602082019050919050565b5f610ca382610c3e565b610cad8185610c48565b9350610cb883610c58565b805f5b83811015610ce8578151610ccf8882610c76565b9750610cda83610c8d565b925050600181019050610cbb565b5085935050505092915050565b5f6040820190508181035f830152610d0d8185610be2565b90508181036020830152610d218184610c99565b90509392505050565b610d3381610af0565b82525050565b5f602082019050610d4c5f830184610d2a565b92915050565b610d5b81610b56565b8114610d65575f5ffd5b50565b5f81359050610d7681610d52565b92915050565b5f60208284031215610d9157610d90610ac9565b5b5f610d9e84828501610d68565b91505092915050565b5f5ffd5b5f5ffd5b5f5ffd5b5f5f83601f840112610dc857610dc7610da7565b5b8235905067ffffffffffffffff811115610de557610de4610dab565b5b602083019150836020820283011115610e0157610e00610daf565b5b9250929050565b5f5f83601f840112610e1d57610e1c610da7565b5b8235905067ffffffffffffffff811115610e3a57610e39610dab565b5b602083019150836020820283011115610e5657610e55610daf565b5b9250929050565b5f5f5f5f60408587031215610e7557610e74610ac9565b5b5f85013567ffffffffffffffff811115610e9257610e91610acd565b5b610e9e87828801610db3565b9450945050602085013567ffffffffffffffff811115610ec157610ec0610acd565b5b610ecd87828801610e08565b925092505092959194509250565b7f4e487b71000000000000000000000000000000000000000000000000000000005f52603260045260245ffd5b7f4e487b71000000000000000000000000000000000000000000000000000000005f52601160045260245ffd5b5f610f3f82610b56565b9150610f4a83610b56565b9250828203905081811115610f6257610f61610f08565b5b92915050565b5f82825260208201905092915050565b7f496e73756666696369656e7420636f6e74726163742062616c616e63650000005f82015250565b5f610fac601d83610f68565b9150610fb782610f78565b602082019050919050565b5f6020820190508181035f830152610fd981610fa0565b9050919050565b5f81905092915050565b50565b5f610ff85f83610fe0565b915061100382610fea565b5f82019050919050565b5f61101782610fed565b9150819050919050565b7f5472616e73666572206661696c656400000000000000000000000000000000005f82015250565b5f611055600f83610f68565b915061106082611021565b602082019050919050565b5f6020820190508181035f83015261108281611049565b9050919050565b7f4e487b71000000000000000000000000000000000000000000000000000000005f52604160045260245ffd5b7f4f6e6c79206f776e65722063616e2063616c6c20746869732066756e6374696f5f8201527f6e00000000000000000000000000000000000000000000000000000000000000602082015250565b5f611110602183610f68565b915061111b826110b6565b604082019050919050565b5f6020820190508181035f83015261113d81611104565b9050919050565b7f417272617973206c656e677468206d69736d61746368000000000000000000005f82015250565b5f611178601683610f68565b915061118382611144565b602082019050919050565b5f6020820190508181035f8301526111a58161116c565b9050919050565b7f456d70747920617272617973206e6f7420616c6c6f77656400000000000000005f82015250565b5f6111e0601883610f68565b91506111eb826111ac565b602082019050919050565b5f6020820190508181035f83015261120d816111d4565b9050919050565b7f496e76616c6964206164647265737300000000000000000000000000000000005f82015250565b5f611248600f83610f68565b915061125382611214565b602082019050919050565b5f6020820190508181035f8301526112758161123c565b905091905056fea264697066735822122007d50b8197f246d0c53ce83fbc16dbef0bd5fa374f9cf30f246bf96df333728d64736f6c634300081c0033","linkReferences":{}},"methodIdentifiers":{"getAllTrackedAddressesWithBalances()":"7b6eeb2e","getContractBalance()":"6f9fb98a","getTrackedAddressesCount()":"6b0fe4be","maintainBalances()":"1d3f99df","minimumBalances(address)":"34e7f7c3","owner()":"8da5cb5b","setMultipleAddressesWithBalance(address[],uint256[])":"fc6da4be","trackedAddresses(uint256)":"f7de2b3d"},"id":0}